{
  "_format": "hh-sol-artifact-1",
  "contractName": "MyNFT",
  "sourceName": "contracts/MyNFT.sol",
  "abi": [
    {
      "inputs": [],
      "stateMutability": "nonpayable",
      "type": "constructor"
    },
    {
      "anonymous": false,
      "inputs": [
        {
          "indexed": true,
          "internalType": "address",
          "name": "owner",
          "type": "address"
        },
        {
          "indexed": true,
          "internalType": "address",
          "name": "approved",
          "type": "address"
        },
        {
          "indexed": true,
          "internalType": "uint256",
          "name": "tokenId",
          "type": "uint256"
        }
      ],
      "name": "Approval",
      "type": "event"
    },
    {
      "anonymous": false,
      "inputs": [
        {
          "indexed": true,
          "internalType": "address",
          "name": "owner",
          "type": "address"
        },
        {
          "indexed": true,
          "internalType": "address",
          "name": "operator",
          "type": "address"
        },
        {
          "indexed": false,
          "internalType": "bool",
          "name": "approved",
          "type": "bool"
        }
      ],
      "name": "ApprovalForAll",
      "type": "event"
    },
    {
      "anonymous": false,
      "inputs": [
        {
          "indexed": false,
          "internalType": "address",
          "name": "sender",
          "type": "address"
        },
        {
          "indexed": false,
          "internalType": "uint256",
          "name": "tokenId",
          "type": "uint256"
        }
      ],
      "name": "NFTMinted",
      "type": "event"
    },
    {
      "anonymous": false,
      "inputs": [
        {
          "indexed": true,
          "internalType": "address",
          "name": "from",
          "type": "address"
        },
        {
          "indexed": true,
          "internalType": "address",
          "name": "to",
          "type": "address"
        },
        {
          "indexed": true,
          "internalType": "uint256",
          "name": "tokenId",
          "type": "uint256"
        }
      ],
      "name": "Transfer",
      "type": "event"
    },
    {
      "inputs": [
        {
          "internalType": "address",
          "name": "to",
          "type": "address"
        },
        {
          "internalType": "uint256",
          "name": "tokenId",
          "type": "uint256"
        }
      ],
      "name": "approve",
      "outputs": [],
      "stateMutability": "nonpayable",
      "type": "function"
    },
    {
      "inputs": [
        {
          "internalType": "address",
          "name": "owner",
          "type": "address"
        }
      ],
      "name": "balanceOf",
      "outputs": [
        {
          "internalType": "uint256",
          "name": "",
          "type": "uint256"
        }
      ],
      "stateMutability": "view",
      "type": "function"
    },
    {
      "inputs": [
        {
          "internalType": "uint256",
          "name": "tokenId",
          "type": "uint256"
        }
      ],
      "name": "getApproved",
      "outputs": [
        {
          "internalType": "address",
          "name": "",
          "type": "address"
        }
      ],
      "stateMutability": "view",
      "type": "function"
    },
    {
      "inputs": [],
      "name": "getTotalNFTsMinted",
      "outputs": [
        {
          "internalType": "uint256",
          "name": "",
          "type": "uint256"
        }
      ],
      "stateMutability": "view",
      "type": "function"
    },
    {
      "inputs": [
        {
          "internalType": "address",
          "name": "owner",
          "type": "address"
        },
        {
          "internalType": "address",
          "name": "operator",
          "type": "address"
        }
      ],
      "name": "isApprovedForAll",
      "outputs": [
        {
          "internalType": "bool",
          "name": "",
          "type": "bool"
        }
      ],
      "stateMutability": "view",
      "type": "function"
    },
    {
      "inputs": [],
      "name": "mintToken",
      "outputs": [],
      "stateMutability": "nonpayable",
      "type": "function"
    },
    {
      "inputs": [],
      "name": "name",
      "outputs": [
        {
          "internalType": "string",
          "name": "",
          "type": "string"
        }
      ],
      "stateMutability": "view",
      "type": "function"
    },
    {
      "inputs": [
        {
          "internalType": "uint256",
          "name": "tokenId",
          "type": "uint256"
        }
      ],
      "name": "ownerOf",
      "outputs": [
        {
          "internalType": "address",
          "name": "",
          "type": "address"
        }
      ],
      "stateMutability": "view",
      "type": "function"
    },
    {
      "inputs": [
        {
          "internalType": "uint256",
          "name": "tokenId",
          "type": "uint256"
        }
      ],
      "name": "pickRandomColor",
      "outputs": [
        {
          "internalType": "string",
          "name": "",
          "type": "string"
        }
      ],
      "stateMutability": "view",
      "type": "function"
    },
    {
      "inputs": [
        {
          "internalType": "uint256",
          "name": "tokenId",
          "type": "uint256"
        }
      ],
      "name": "pickRandomFirstWord",
      "outputs": [
        {
          "internalType": "string",
          "name": "",
          "type": "string"
        }
      ],
      "stateMutability": "view",
      "type": "function"
    },
    {
      "inputs": [
        {
          "internalType": "uint256",
          "name": "tokenId",
          "type": "uint256"
        }
      ],
      "name": "pickRandomSecondWord",
      "outputs": [
        {
          "internalType": "string",
          "name": "",
          "type": "string"
        }
      ],
      "stateMutability": "view",
      "type": "function"
    },
    {
      "inputs": [
        {
          "internalType": "uint256",
          "name": "tokenId",
          "type": "uint256"
        }
      ],
      "name": "pickRandomThirdWord",
      "outputs": [
        {
          "internalType": "string",
          "name": "",
          "type": "string"
        }
      ],
      "stateMutability": "view",
      "type": "function"
    },
    {
      "inputs": [
        {
          "internalType": "address",
          "name": "from",
          "type": "address"
        },
        {
          "internalType": "address",
          "name": "to",
          "type": "address"
        },
        {
          "internalType": "uint256",
          "name": "tokenId",
          "type": "uint256"
        }
      ],
      "name": "safeTransferFrom",
      "outputs": [],
      "stateMutability": "nonpayable",
      "type": "function"
    },
    {
      "inputs": [
        {
          "internalType": "address",
          "name": "from",
          "type": "address"
        },
        {
          "internalType": "address",
          "name": "to",
          "type": "address"
        },
        {
          "internalType": "uint256",
          "name": "tokenId",
          "type": "uint256"
        },
        {
          "internalType": "bytes",
          "name": "data",
          "type": "bytes"
        }
      ],
      "name": "safeTransferFrom",
      "outputs": [],
      "stateMutability": "nonpayable",
      "type": "function"
    },
    {
      "inputs": [
        {
          "internalType": "address",
          "name": "operator",
          "type": "address"
        },
        {
          "internalType": "bool",
          "name": "approved",
          "type": "bool"
        }
      ],
      "name": "setApprovalForAll",
      "outputs": [],
      "stateMutability": "nonpayable",
      "type": "function"
    },
    {
      "inputs": [
        {
          "internalType": "bytes4",
          "name": "interfaceId",
          "type": "bytes4"
        }
      ],
      "name": "supportsInterface",
      "outputs": [
        {
          "internalType": "bool",
          "name": "",
          "type": "bool"
        }
      ],
      "stateMutability": "view",
      "type": "function"
    },
    {
      "inputs": [],
      "name": "symbol",
      "outputs": [
        {
          "internalType": "string",
          "name": "",
          "type": "string"
        }
      ],
      "stateMutability": "view",
      "type": "function"
    },
    {
      "inputs": [
        {
          "internalType": "uint256",
          "name": "tokenId",
          "type": "uint256"
        }
      ],
      "name": "tokenURI",
      "outputs": [
        {
          "internalType": "string",
          "name": "",
          "type": "string"
        }
      ],
      "stateMutability": "view",
      "type": "function"
    },
    {
      "inputs": [
        {
          "internalType": "address",
          "name": "from",
          "type": "address"
        },
        {
          "internalType": "address",
          "name": "to",
          "type": "address"
        },
        {
          "internalType": "uint256",
          "name": "tokenId",
          "type": "uint256"
        }
      ],
      "name": "transferFrom",
      "outputs": [],
      "stateMutability": "nonpayable",
      "type": "function"
    }
  ],
  "bytecode": "0x608060405260405180610100016040528060d38152602001620044dc60d39139600890805190602001906200003692919062000918565b50604051806080016040528060568152602001620045af60569139600990805190602001906200006892919062000918565b506040518060e001604052806040518060400160405280600981526020017f46616e746173746963000000000000000000000000000000000000000000000081525081526020016040518060400160405280600481526020017f457069630000000000000000000000000000000000000000000000000000000081525081526020016040518060400160405280600881526020017f5465727269626c6500000000000000000000000000000000000000000000000081525081526020016040518060400160405280600581526020017f4372617a7900000000000000000000000000000000000000000000000000000081525081526020016040518060400160405280600481526020017f57696c640000000000000000000000000000000000000000000000000000000081525081526020016040518060400160405280600a81526020017f54657272696679696e670000000000000000000000000000000000000000000081525081526020016040518060400160405280600681526020017f53706f6f6b790000000000000000000000000000000000000000000000000000815250815250600a90600762000221929190620009a9565b506040518060e001604052806040518060400160405280600781526020017f43757063616b650000000000000000000000000000000000000000000000000081525081526020016040518060400160405280600581526020017f50697a7a6100000000000000000000000000000000000000000000000000000081525081526020016040518060400160405280600981526020017f4d696c6b7368616b65000000000000000000000000000000000000000000000081525081526020016040518060400160405280600581526020017f437572727900000000000000000000000000000000000000000000000000000081525081526020016040518060400160405280600781526020017f436869636b656e0000000000000000000000000000000000000000000000000081525081526020016040518060400160405280600881526020017f53616e647769636800000000000000000000000000000000000000000000000081525081526020016040518060400160405280600581526020017f53616c6164000000000000000000000000000000000000000000000000000000815250815250600b906007620003da929190620009a9565b506040518060e001604052806040518060400160405280600681526020017f4e617275746f000000000000000000000000000000000000000000000000000081525081526020016040518060400160405280600681526020017f536173756b65000000000000000000000000000000000000000000000000000081525081526020016040518060400160405280600681526020017f53616b757261000000000000000000000000000000000000000000000000000081525081526020016040518060400160405280600481526020017f476f6b750000000000000000000000000000000000000000000000000000000081525081526020016040518060400160405280600581526020017f476161726100000000000000000000000000000000000000000000000000000081525081526020016040518060400160405280600681526020017f4d696e61746f000000000000000000000000000000000000000000000000000081525081526020016040518060400160405280600781526020017f4b616b6173686900000000000000000000000000000000000000000000000000815250815250600c90600762000593929190620009a9565b506040518060e001604052806040518060400160405280600381526020017f726564000000000000000000000000000000000000000000000000000000000081525081526020016040518060400160405280600581526020017f626c61636b00000000000000000000000000000000000000000000000000000081525081526020016040518060400160405280600581526020017f677265656e00000000000000000000000000000000000000000000000000000081525081526020016040518060400160405280600681526020017f79656c6c6f77000000000000000000000000000000000000000000000000000081525081526020016040518060400160405280600481526020017f626c75650000000000000000000000000000000000000000000000000000000081525081526020016040518060400160405280600681526020017f6f72616e6765000000000000000000000000000000000000000000000000000081525081526020016040518060400160405280600681526020017f707572706c650000000000000000000000000000000000000000000000000000815250815250600d9060076200074c929190620009a9565b503480156200075a57600080fd5b506040518060400160405280600981526020017f5371756172654e465400000000000000000000000000000000000000000000008152506040518060400160405280600681526020017f53515541524500000000000000000000000000000000000000000000000000008152508160009080519060200190620007df92919062000918565b508060019080519060200190620007f892919062000918565b505050620008466040518060400160405280601e81526020017f54686973206973206d79204e465420636f6e74726163742e20576f61682100008152506200084c60201b6200119a1760201c565b62000bca565b620008ec8160405160240162000863919062000b41565b6040516020818303038152906040527f41304fac000000000000000000000000000000000000000000000000000000007bffffffffffffffffffffffffffffffffffffffffffffffffffffffff19166020820180517bffffffffffffffffffffffffffffffffffffffffffffffffffffffff8381831617835250505050620008ef60201b60201c565b50565b60008151905060006a636f6e736f6c652e6c6f679050602083016000808483855afa5050505050565b828054620009269062000b94565b90600052602060002090601f0160209004810192826200094a576000855562000996565b82601f106200096557805160ff191683800117855562000996565b8280016001018555821562000996579182015b828111156200099557825182559160200191906001019062000978565b5b509050620009a5919062000a10565b5090565b828054828255906000526020600020908101928215620009fd579160200282015b82811115620009fc578251829080519060200190620009eb92919062000918565b5091602001919060010190620009ca565b5b50905062000a0c919062000a2f565b5090565b5b8082111562000a2b57600081600090555060010162000a11565b5090565b5b8082111562000a53576000818162000a49919062000a57565b5060010162000a30565b5090565b50805462000a659062000b94565b6000825580601f1062000a79575062000a9a565b601f01602090049060005260206000209081019062000a99919062000a10565b5b50565b600081519050919050565b600082825260208201905092915050565b60005b8381101562000ad957808201518184015260208101905062000abc565b8381111562000ae9576000848401525b50505050565b6000601f19601f8301169050919050565b600062000b0d8262000a9d565b62000b19818562000aa8565b935062000b2b81856020860162000ab9565b62000b368162000aef565b840191505092915050565b6000602082019050818103600083015262000b5d818462000b00565b905092915050565b7f4e487b7100000000000000000000000000000000000000000000000000000000600052602260045260246000fd5b6000600282049050600182168062000bad57607f821691505b6020821081141562000bc45762000bc362000b65565b5b50919050565b6139028062000bda6000396000f3fe608060405234801561001057600080fd5b50600436106101215760003560e01c80636352211e116100ad578063b4c3b8be11610071578063b4c3b8be1461032c578063b88d4fde1461034a578063c575757a14610366578063c87b56dd14610396578063e985e9c5146103c657610121565b80636352211e1461026257806370a082311461029257806395d89b41146102c2578063a22cb465146102e0578063b187301f146102fc57610121565b80632004ffd9116100f45780632004ffd9146101c057806323b872dd146101ca5780632de38d68146101e657806342842e0e14610216578063514dc8c61461023257610121565b806301ffc9a71461012657806306fdde0314610156578063081812fc14610174578063095ea7b3146101a4575b600080fd5b610140600480360381019061013b919061230b565b6103f6565b60405161014d9190612353565b60405180910390f35b61015e6104d8565b60405161016b9190612407565b60405180910390f35b61018e6004803603810190610189919061245f565b61056a565b60405161019b91906124cd565b60405180910390f35b6101be60048036038101906101b99190612514565b6105b0565b005b6101c86106c8565b005b6101e460048036038101906101df9190612554565b61090e565b005b61020060048036038101906101fb919061245f565b61096e565b60405161020d9190612407565b60405180910390f35b610230600480360381019061022b9190612554565b610a66565b005b61024c6004803603810190610247919061245f565b610a86565b6040516102599190612407565b60405180910390f35b61027c6004803603810190610277919061245f565b610b7e565b60405161028991906124cd565b60405180910390f35b6102ac60048036038101906102a791906125a7565b610c30565b6040516102b991906125e3565b60405180910390f35b6102ca610ce8565b6040516102d79190612407565b60405180910390f35b6102fa60048036038101906102f5919061262a565b610d7a565b005b6103166004803603810190610311919061245f565b610d90565b6040516103239190612407565b60405180910390f35b610334610e88565b60405161034191906125e3565b60405180910390f35b610364600480360381019061035f919061279f565b610e99565b005b610380600480360381019061037b919061245f565b610efb565b60405161038d9190612407565b60405180910390f35b6103b060048036038101906103ab919061245f565b610ff3565b6040516103bd9190612407565b60405180910390f35b6103e060048036038101906103db9190612822565b611106565b6040516103ed9190612353565b60405180910390f35b60007f80ac58cd000000000000000000000000000000000000000000000000000000007bffffffffffffffffffffffffffffffffffffffffffffffffffffffff1916827bffffffffffffffffffffffffffffffffffffffffffffffffffffffff191614806104c157507f5b5e139f000000000000000000000000000000000000000000000000000000007bffffffffffffffffffffffffffffffffffffffffffffffffffffffff1916827bffffffffffffffffffffffffffffffffffffffffffffffffffffffff1916145b806104d157506104d082611233565b5b9050919050565b6060600080546104e790612891565b80601f016020809104026020016040519081016040528092919081815260200182805461051390612891565b80156105605780601f1061053557610100808354040283529160200191610560565b820191906000526020600020905b81548152906001019060200180831161054357829003601f168201915b5050505050905090565b60006105758261129d565b6004600083815260200190815260200160002060009054906101000a900473ffffffffffffffffffffffffffffffffffffffff169050919050565b60006105bb82610b7e565b90508073ffffffffffffffffffffffffffffffffffffffff168373ffffffffffffffffffffffffffffffffffffffff16141561062c576040517f08c379a000000000000000000000000000000000000000000000000000000000815260040161062390612935565b60405180910390fd5b8073ffffffffffffffffffffffffffffffffffffffff1661064b6112e8565b73ffffffffffffffffffffffffffffffffffffffff16148061067a5750610679816106746112e8565b611106565b5b6106b9576040517f08c379a00000000000000000000000000000000000000000000000000000000081526004016106b0906129c7565b60405180910390fd5b6106c383836112f0565b505050565b60326106d460076113a9565b10610714576040517f08c379a000000000000000000000000000000000000000000000000000000000815260040161070b90612a33565b60405180910390fd5b600061072060076113a9565b9050600061072d8261096e565b9050600061073a83610d90565b9050600061074784610efb565b9050600083838360405160200161076093929190612a8f565b6040516020818303038152906040529050600061077c86610a86565b905060006008826009856040516020016107999493929190612ba0565b604051602081830303815290604052905060006107de846107b9846113b7565b6040516020016107ca929190612d3f565b6040516020818303038152906040526113b7565b90506000816040516020016107f39190612dd0565b60405160208183030381529060405290506108426040518060400160405280601581526020017f0a2d2d2d2d2d2d2d2d2d2d2d2d2d2d2d2d2d2d2d2d000000000000000000000081525061119a565b61084b8161119a565b6108896040518060400160405280601581526020017f2d2d2d2d2d2d2d2d2d2d2d2d2d2d2d2d2d2d2d2d0a000000000000000000000081525061119a565b610893338a61154f565b61089d898261156d565b6108c0604051806060016040528060258152602001613868602591398a336115e1565b6108ca6007611680565b7f4cc0a9c4a99ddc700de1af2c9f916a7cbfdb71f14801ccff94061ad1ef8a8040338a6040516108fb929190612df2565b60405180910390a1505050505050505050565b61091f6109196112e8565b82611696565b61095e576040517f08c379a000000000000000000000000000000000000000000000000000000000815260040161095590612e8d565b60405180910390fd5b61096983838361172b565b505050565b606060006109a261097e84611992565b60405160200161098e9190612ef9565b604051602081830303815290604052611af3565b9050600a80549050816109b59190612f4a565b9050600a81815481106109cb576109ca612f7b565b5b9060005260206000200180546109e090612891565b80601f0160208091040260200160405190810160405280929190818152602001828054610a0c90612891565b8015610a595780601f10610a2e57610100808354040283529160200191610a59565b820191906000526020600020905b815481529060010190602001808311610a3c57829003601f168201915b5050505050915050919050565b610a8183838360405180602001604052806000815250610e99565b505050565b60606000610aba610a9684611992565b604051602001610aa69190612ff6565b604051602081830303815290604052611af3565b9050600d8054905081610acd9190612f4a565b9050600d8181548110610ae357610ae2612f7b565b5b906000526020600020018054610af890612891565b80601f0160208091040260200160405190810160405280929190818152602001828054610b2490612891565b8015610b715780601f10610b4657610100808354040283529160200191610b71565b820191906000526020600020905b815481529060010190602001808311610b5457829003601f168201915b5050505050915050919050565b6000806002600084815260200190815260200160002060009054906101000a900473ffffffffffffffffffffffffffffffffffffffff169050600073ffffffffffffffffffffffffffffffffffffffff168173ffffffffffffffffffffffffffffffffffffffff161415610c27576040517f08c379a0000000000000000000000000000000000000000000000000000000008152600401610c1e90613064565b60405180910390fd5b80915050919050565b60008073ffffffffffffffffffffffffffffffffffffffff168273ffffffffffffffffffffffffffffffffffffffff161415610ca1576040517f08c379a0000000000000000000000000000000000000000000000000000000008152600401610c98906130f6565b60405180910390fd5b600360008373ffffffffffffffffffffffffffffffffffffffff1673ffffffffffffffffffffffffffffffffffffffff168152602001908152602001600020549050919050565b606060018054610cf790612891565b80601f0160208091040260200160405190810160405280929190818152602001828054610d2390612891565b8015610d705780601f10610d4557610100808354040283529160200191610d70565b820191906000526020600020905b815481529060010190602001808311610d5357829003601f168201915b5050505050905090565b610d8c610d856112e8565b8383611b26565b5050565b60606000610dc4610da084611992565b604051602001610db09190613162565b604051602081830303815290604052611af3565b9050600b8054905081610dd79190612f4a565b9050600b8181548110610ded57610dec612f7b565b5b906000526020600020018054610e0290612891565b80601f0160208091040260200160405190810160405280929190818152602001828054610e2e90612891565b8015610e7b5780601f10610e5057610100808354040283529160200191610e7b565b820191906000526020600020905b815481529060010190602001808311610e5e57829003601f168201915b5050505050915050919050565b6000610e9460076113a9565b905090565b610eaa610ea46112e8565b83611696565b610ee9576040517f08c379a0000000000000000000000000000000000000000000000000000000008152600401610ee090612e8d565b60405180910390fd5b610ef584848484611c93565b50505050565b60606000610f2f610f0b84611992565b604051602001610f1b91906131d0565b604051602081830303815290604052611af3565b9050600c8054905081610f429190612f4a565b9050600c8181548110610f5857610f57612f7b565b5b906000526020600020018054610f6d90612891565b80601f0160208091040260200160405190810160405280929190818152602001828054610f9990612891565b8015610fe65780601f10610fbb57610100808354040283529160200191610fe6565b820191906000526020600020905b815481529060010190602001808311610fc957829003601f168201915b5050505050915050919050565b6060610ffe8261129d565b600060066000848152602001908152602001600020805461101e90612891565b80601f016020809104026020016040519081016040528092919081815260200182805461104a90612891565b80156110975780601f1061106c57610100808354040283529160200191611097565b820191906000526020600020905b81548152906001019060200180831161107a57829003601f168201915b5050505050905060006110a8611cef565b90506000815114156110be578192505050611101565b6000825111156110f35780826040516020016110db9291906131f2565b60405160208183030381529060405292505050611101565b6110fc84611d06565b925050505b919050565b6000600560008473ffffffffffffffffffffffffffffffffffffffff1673ffffffffffffffffffffffffffffffffffffffff16815260200190815260200160002060008373ffffffffffffffffffffffffffffffffffffffff1673ffffffffffffffffffffffffffffffffffffffff16815260200190815260200160002060009054906101000a900460ff16905092915050565b611230816040516024016111ae9190612407565b6040516020818303038152906040527f41304fac000000000000000000000000000000000000000000000000000000007bffffffffffffffffffffffffffffffffffffffffffffffffffffffff19166020820180517bffffffffffffffffffffffffffffffffffffffffffffffffffffffff8381831617835250505050611d6e565b50565b60007f01ffc9a7000000000000000000000000000000000000000000000000000000007bffffffffffffffffffffffffffffffffffffffffffffffffffffffff1916827bffffffffffffffffffffffffffffffffffffffffffffffffffffffff1916149050919050565b6112a681611d97565b6112e5576040517f08c379a00000000000000000000000000000000000000000000000000000000081526004016112dc90613064565b60405180910390fd5b50565b600033905090565b816004600083815260200190815260200160002060006101000a81548173ffffffffffffffffffffffffffffffffffffffff021916908373ffffffffffffffffffffffffffffffffffffffff160217905550808273ffffffffffffffffffffffffffffffffffffffff1661136383610b7e565b73ffffffffffffffffffffffffffffffffffffffff167f8c5be1e5ebec7d5bd14f71427d1e84f3dd0314c0f7b2291e5b200ac8c7c3b92560405160405180910390a45050565b600081600001549050919050565b606060008251905060008114156113e0576040518060200160405280600081525091505061154a565b600060036002836113f19190613245565b6113fb919061329b565b600461140791906132cc565b905060006020826114189190613245565b67ffffffffffffffff81111561143157611430612674565b5b6040519080825280601f01601f1916602001820160405280156114635781602001600182028036833780820191505090505b509050600060405180606001604052806040815260200161388d604091399050600181016020830160005b868110156115075760038101905062ffffff818a015116603f8160121c168401518060081b905060ff603f83600c1c1686015116810190508060081b905060ff603f8360061c1686015116810190508060081b905060ff603f831686015116810190508060e01b9050808452600484019350505061148e565b50600386066001811461152157600281146115315761153c565b613d3d60f01b600283035261153c565b603d60f81b60018303525b508484525050819450505050505b919050565b611569828260405180602001604052806000815250611e03565b5050565b61157682611d97565b6115b5576040517f08c379a00000000000000000000000000000000000000000000000000000000081526004016115ac90613398565b60405180910390fd5b806006600084815260200190815260200160002090805190602001906115dc9291906121fc565b505050565b61167b8383836040516024016115f9939291906133b8565b6040516020818303038152906040527fe3849f79000000000000000000000000000000000000000000000000000000007bffffffffffffffffffffffffffffffffffffffffffffffffffffffff19166020820180517bffffffffffffffffffffffffffffffffffffffffffffffffffffffff8381831617835250505050611d6e565b505050565b6001816000016000828254019250508190555050565b6000806116a283610b7e565b90508073ffffffffffffffffffffffffffffffffffffffff168473ffffffffffffffffffffffffffffffffffffffff1614806116e457506116e38185611106565b5b8061172257508373ffffffffffffffffffffffffffffffffffffffff1661170a8461056a565b73ffffffffffffffffffffffffffffffffffffffff16145b91505092915050565b8273ffffffffffffffffffffffffffffffffffffffff1661174b82610b7e565b73ffffffffffffffffffffffffffffffffffffffff16146117a1576040517f08c379a000000000000000000000000000000000000000000000000000000000815260040161179890613468565b60405180910390fd5b600073ffffffffffffffffffffffffffffffffffffffff168273ffffffffffffffffffffffffffffffffffffffff161415611811576040517f08c379a0000000000000000000000000000000000000000000000000000000008152600401611808906134fa565b60405180910390fd5b61181c838383611e5e565b6118276000826112f0565b6001600360008573ffffffffffffffffffffffffffffffffffffffff1673ffffffffffffffffffffffffffffffffffffffff1681526020019081526020016000206000828254611877919061351a565b925050819055506001600360008473ffffffffffffffffffffffffffffffffffffffff1673ffffffffffffffffffffffffffffffffffffffff16815260200190815260200160002060008282546118ce9190613245565b92505081905550816002600083815260200190815260200160002060006101000a81548173ffffffffffffffffffffffffffffffffffffffff021916908373ffffffffffffffffffffffffffffffffffffffff160217905550808273ffffffffffffffffffffffffffffffffffffffff168473ffffffffffffffffffffffffffffffffffffffff167fddf252ad1be2c89b69c2b068fc378daa952ba7f163c4a11628f55a4df523b3ef60405160405180910390a461198d838383611e63565b505050565b606060008214156119da576040518060400160405280600181526020017f30000000000000000000000000000000000000000000000000000000000000008152509050611aee565b600082905060005b60008214611a0c5780806119f59061354e565b915050600a82611a05919061329b565b91506119e2565b60008167ffffffffffffffff811115611a2857611a27612674565b5b6040519080825280601f01601f191660200182016040528015611a5a5781602001600182028036833780820191505090505b5090505b60008514611ae757600182611a73919061351a565b9150600a85611a829190612f4a565b6030611a8e9190613245565b60f81b818381518110611aa457611aa3612f7b565b5b60200101907effffffffffffffffffffffffffffffffffffffffffffffffffffffffffffff1916908160001a905350600a85611ae0919061329b565b9450611a5e565b8093505050505b919050565b600081604051602001611b069190613597565b6040516020818303038152906040528051906020012060001c9050919050565b8173ffffffffffffffffffffffffffffffffffffffff168373ffffffffffffffffffffffffffffffffffffffff161415611b95576040517f08c379a0000000000000000000000000000000000000000000000000000000008152600401611b8c906135fa565b60405180910390fd5b80600560008573ffffffffffffffffffffffffffffffffffffffff1673ffffffffffffffffffffffffffffffffffffffff16815260200190815260200160002060008473ffffffffffffffffffffffffffffffffffffffff1673ffffffffffffffffffffffffffffffffffffffff16815260200190815260200160002060006101000a81548160ff0219169083151502179055508173ffffffffffffffffffffffffffffffffffffffff168373ffffffffffffffffffffffffffffffffffffffff167f17307eab39ab6107e8899845ad3d59bd9653f200f220920489ca2b5937696c3183604051611c869190612353565b60405180910390a3505050565b611c9e84848461172b565b611caa84848484611e68565b611ce9576040517f08c379a0000000000000000000000000000000000000000000000000000000008152600401611ce09061368c565b60405180910390fd5b50505050565b606060405180602001604052806000815250905090565b6060611d118261129d565b6000611d1b611cef565b90506000815111611d3b5760405180602001604052806000815250611d66565b80611d4584611992565b604051602001611d569291906131f2565b6040516020818303038152906040525b915050919050565b60008151905060006a636f6e736f6c652e6c6f679050602083016000808483855afa5050505050565b60008073ffffffffffffffffffffffffffffffffffffffff166002600084815260200190815260200160002060009054906101000a900473ffffffffffffffffffffffffffffffffffffffff1673ffffffffffffffffffffffffffffffffffffffff1614159050919050565b611e0d8383611fff565b611e1a6000848484611e68565b611e59576040517f08c379a0000000000000000000000000000000000000000000000000000000008152600401611e509061368c565b60405180910390fd5b505050565b505050565b505050565b6000611e898473ffffffffffffffffffffffffffffffffffffffff166121d9565b15611ff2578373ffffffffffffffffffffffffffffffffffffffff1663150b7a02611eb26112e8565b8786866040518563ffffffff1660e01b8152600401611ed49493929190613701565b602060405180830381600087803b158015611eee57600080fd5b505af1925050508015611f1f57506040513d601f19601f82011682018060405250810190611f1c9190613762565b60015b611fa2573d8060008114611f4f576040519150601f19603f3d011682016040523d82523d6000602084013e611f54565b606091505b50600081511415611f9a576040517f08c379a0000000000000000000000000000000000000000000000000000000008152600401611f919061368c565b60405180910390fd5b805181602001fd5b63150b7a0260e01b7bffffffffffffffffffffffffffffffffffffffffffffffffffffffff1916817bffffffffffffffffffffffffffffffffffffffffffffffffffffffff191614915050611ff7565b600190505b949350505050565b600073ffffffffffffffffffffffffffffffffffffffff168273ffffffffffffffffffffffffffffffffffffffff16141561206f576040517f08c379a0000000000000000000000000000000000000000000000000000000008152600401612066906137db565b60405180910390fd5b61207881611d97565b156120b8576040517f08c379a00000000000000000000000000000000000000000000000000000000081526004016120af90613847565b60405180910390fd5b6120c460008383611e5e565b6001600360008473ffffffffffffffffffffffffffffffffffffffff1673ffffffffffffffffffffffffffffffffffffffff16815260200190815260200160002060008282546121149190613245565b92505081905550816002600083815260200190815260200160002060006101000a81548173ffffffffffffffffffffffffffffffffffffffff021916908373ffffffffffffffffffffffffffffffffffffffff160217905550808273ffffffffffffffffffffffffffffffffffffffff16600073ffffffffffffffffffffffffffffffffffffffff167fddf252ad1be2c89b69c2b068fc378daa952ba7f163c4a11628f55a4df523b3ef60405160405180910390a46121d560008383611e63565b5050565b6000808273ffffffffffffffffffffffffffffffffffffffff163b119050919050565b82805461220890612891565b90600052602060002090601f01602090048101928261222a5760008555612271565b82601f1061224357805160ff1916838001178555612271565b82800160010185558215612271579182015b82811115612270578251825591602001919060010190612255565b5b50905061227e9190612282565b5090565b5b8082111561229b576000816000905550600101612283565b5090565b6000604051905090565b600080fd5b600080fd5b60007fffffffff0000000000000000000000000000000000000000000000000000000082169050919050565b6122e8816122b3565b81146122f357600080fd5b50565b600081359050612305816122df565b92915050565b600060208284031215612321576123206122a9565b5b600061232f848285016122f6565b91505092915050565b60008115159050919050565b61234d81612338565b82525050565b60006020820190506123686000830184612344565b92915050565b600081519050919050565b600082825260208201905092915050565b60005b838110156123a857808201518184015260208101905061238d565b838111156123b7576000848401525b50505050565b6000601f19601f8301169050919050565b60006123d98261236e565b6123e38185612379565b93506123f381856020860161238a565b6123fc816123bd565b840191505092915050565b6000602082019050818103600083015261242181846123ce565b905092915050565b6000819050919050565b61243c81612429565b811461244757600080fd5b50565b60008135905061245981612433565b92915050565b600060208284031215612475576124746122a9565b5b60006124838482850161244a565b91505092915050565b600073ffffffffffffffffffffffffffffffffffffffff82169050919050565b60006124b78261248c565b9050919050565b6124c7816124ac565b82525050565b60006020820190506124e260008301846124be565b92915050565b6124f1816124ac565b81146124fc57600080fd5b50565b60008135905061250e816124e8565b92915050565b6000806040838503121561252b5761252a6122a9565b5b6000612539858286016124ff565b925050602061254a8582860161244a565b9150509250929050565b60008060006060848603121561256d5761256c6122a9565b5b600061257b868287016124ff565b935050602061258c868287016124ff565b925050604061259d8682870161244a565b9150509250925092565b6000602082840312156125bd576125bc6122a9565b5b60006125cb848285016124ff565b91505092915050565b6125dd81612429565b82525050565b60006020820190506125f860008301846125d4565b92915050565b61260781612338565b811461261257600080fd5b50565b600081359050612624816125fe565b92915050565b60008060408385031215612641576126406122a9565b5b600061264f858286016124ff565b925050602061266085828601612615565b9150509250929050565b600080fd5b600080fd5b7f4e487b7100000000000000000000000000000000000000000000000000000000600052604160045260246000fd5b6126ac826123bd565b810181811067ffffffffffffffff821117156126cb576126ca612674565b5b80604052505050565b60006126de61229f565b90506126ea82826126a3565b919050565b600067ffffffffffffffff82111561270a57612709612674565b5b612713826123bd565b9050602081019050919050565b82818337600083830152505050565b600061274261273d846126ef565b6126d4565b90508281526020810184848401111561275e5761275d61266f565b5b612769848285612720565b509392505050565b600082601f8301126127865761278561266a565b5b813561279684826020860161272f565b91505092915050565b600080600080608085870312156127b9576127b86122a9565b5b60006127c7878288016124ff565b94505060206127d8878288016124ff565b93505060406127e98782880161244a565b925050606085013567ffffffffffffffff81111561280a576128096122ae565b5b61281687828801612771565b91505092959194509250565b60008060408385031215612839576128386122a9565b5b6000612847858286016124ff565b9250506020612858858286016124ff565b9150509250929050565b7f4e487b7100000000000000000000000000000000000000000000000000000000600052602260045260246000fd5b600060028204905060018216806128a957607f821691505b602082108114156128bd576128bc612862565b5b50919050565b7f4552433732313a20617070726f76616c20746f2063757272656e74206f776e6560008201527f7200000000000000000000000000000000000000000000000000000000000000602082015250565b600061291f602183612379565b915061292a826128c3565b604082019050919050565b6000602082019050818103600083015261294e81612912565b9050919050565b7f4552433732313a20617070726f76652063616c6c6572206973206e6f7420746f60008201527f6b656e206f776e6572206e6f7220617070726f76656420666f7220616c6c0000602082015250565b60006129b1603e83612379565b91506129bc82612955565b604082019050919050565b600060208201905081810360008301526129e0816129a4565b9050919050565b7f4d696e74696e6720697320636c6f736564210000000000000000000000000000600082015250565b6000612a1d601283612379565b9150612a28826129e7565b602082019050919050565b60006020820190508181036000830152612a4c81612a10565b9050919050565b600081905092915050565b6000612a698261236e565b612a738185612a53565b9350612a8381856020860161238a565b80840191505092915050565b6000612a9b8286612a5e565b9150612aa78285612a5e565b9150612ab38284612a5e565b9150819050949350505050565b60008190508160005260206000209050919050565b60008154612ae281612891565b612aec8186612a53565b94506001821660008114612b075760018114612b1857612b4b565b60ff19831686528186019350612b4b565b612b2185612ac0565b60005b83811015612b4357815481890152600182019150602081019050612b24565b838801955050505b50505092915050565b7f3c2f746578743e3c2f7376673e00000000000000000000000000000000000000600082015250565b6000612b8a600d83612a53565b9150612b9582612b54565b600d82019050919050565b6000612bac8287612ad5565b9150612bb88286612a5e565b9150612bc48285612ad5565b9150612bd08284612a5e565b9150612bdb82612b7d565b915081905095945050505050565b7f7b226e616d65223a202200000000000000000000000000000000000000000000600082015250565b6000612c1f600a83612a53565b9150612c2a82612be9565b600a82019050919050565b7f222c20226465736372697074696f6e223a20224120686967686c79206163636c60008201527f61696d656420636f6c6c656374696f6e206f6620737175617265732e222c202260208201527f696d616765223a2022646174613a696d6167652f7376672b786d6c3b6261736560408201527f36342c0000000000000000000000000000000000000000000000000000000000606082015250565b6000612cdd606383612a53565b9150612ce882612c35565b606382019050919050565b7f227d000000000000000000000000000000000000000000000000000000000000600082015250565b6000612d29600283612a53565b9150612d3482612cf3565b600282019050919050565b6000612d4a82612c12565b9150612d568285612a5e565b9150612d6182612cd0565b9150612d6d8284612a5e565b9150612d7882612d1c565b91508190509392505050565b7f646174613a6170706c69636174696f6e2f6a736f6e3b6261736536342c000000600082015250565b6000612dba601d83612a53565b9150612dc582612d84565b601d82019050919050565b6000612ddb82612dad565b9150612de78284612a5e565b915081905092915050565b6000604082019050612e0760008301856124be565b612e1460208301846125d4565b9392505050565b7f4552433732313a2063616c6c6572206973206e6f7420746f6b656e206f776e6560008201527f72206e6f7220617070726f766564000000000000000000000000000000000000602082015250565b6000612e77602e83612379565b9150612e8282612e1b565b604082019050919050565b60006020820190508181036000830152612ea681612e6a565b9050919050565b7f46495253545f574f524400000000000000000000000000000000000000000000600082015250565b6000612ee3600a83612a53565b9150612eee82612ead565b600a82019050919050565b6000612f0482612ed6565b9150612f108284612a5e565b915081905092915050565b7f4e487b7100000000000000000000000000000000000000000000000000000000600052601260045260246000fd5b6000612f5582612429565b9150612f6083612429565b925082612f7057612f6f612f1b565b5b828206905092915050565b7f4e487b7100000000000000000000000000000000000000000000000000000000600052603260045260246000fd5b7f434f4c4f52000000000000000000000000000000000000000000000000000000600082015250565b6000612fe0600583612a53565b9150612feb82612faa565b600582019050919050565b600061300182612fd3565b915061300d8284612a5e565b915081905092915050565b7f4552433732313a20696e76616c696420746f6b656e2049440000000000000000600082015250565b600061304e601883612379565b915061305982613018565b602082019050919050565b6000602082019050818103600083015261307d81613041565b9050919050565b7f4552433732313a2061646472657373207a65726f206973206e6f74206120766160008201527f6c6964206f776e65720000000000000000000000000000000000000000000000602082015250565b60006130e0602983612379565b91506130eb82613084565b604082019050919050565b6000602082019050818103600083015261310f816130d3565b9050919050565b7f5345434f4e445f574f5244000000000000000000000000000000000000000000600082015250565b600061314c600b83612a53565b915061315782613116565b600b82019050919050565b600061316d8261313f565b91506131798284612a5e565b915081905092915050565b7f54484952445f574f524400000000000000000000000000000000000000000000600082015250565b60006131ba600a83612a53565b91506131c582613184565b600a82019050919050565b60006131db826131ad565b91506131e78284612a5e565b915081905092915050565b60006131fe8285612a5e565b915061320a8284612a5e565b91508190509392505050565b7f4e487b7100000000000000000000000000000000000000000000000000000000600052601160045260246000fd5b600061325082612429565b915061325b83612429565b9250827fffffffffffffffffffffffffffffffffffffffffffffffffffffffffffffffff038211156132905761328f613216565b5b828201905092915050565b60006132a682612429565b91506132b183612429565b9250826132c1576132c0612f1b565b5b828204905092915050565b60006132d782612429565b91506132e283612429565b9250817fffffffffffffffffffffffffffffffffffffffffffffffffffffffffffffffff048311821515161561331b5761331a613216565b5b828202905092915050565b7f45524337323155524953746f726167653a2055524920736574206f66206e6f6e60008201527f6578697374656e7420746f6b656e000000000000000000000000000000000000602082015250565b6000613382602e83612379565b915061338d82613326565b604082019050919050565b600060208201905081810360008301526133b181613375565b9050919050565b600060608201905081810360008301526133d281866123ce565b90506133e160208301856125d4565b6133ee60408301846124be565b949350505050565b7f4552433732313a207472616e736665722066726f6d20696e636f72726563742060008201527f6f776e6572000000000000000000000000000000000000000000000000000000602082015250565b6000613452602583612379565b915061345d826133f6565b604082019050919050565b6000602082019050818103600083015261348181613445565b9050919050565b7f4552433732313a207472616e7366657220746f20746865207a65726f2061646460008201527f7265737300000000000000000000000000000000000000000000000000000000602082015250565b60006134e4602483612379565b91506134ef82613488565b604082019050919050565b60006020820190508181036000830152613513816134d7565b9050919050565b600061352582612429565b915061353083612429565b92508282101561354357613542613216565b5b828203905092915050565b600061355982612429565b91507fffffffffffffffffffffffffffffffffffffffffffffffffffffffffffffffff82141561358c5761358b613216565b5b600182019050919050565b60006135a38284612a5e565b915081905092915050565b7f4552433732313a20617070726f766520746f2063616c6c657200000000000000600082015250565b60006135e4601983612379565b91506135ef826135ae565b602082019050919050565b60006020820190508181036000830152613613816135d7565b9050919050565b7f4552433732313a207472616e7366657220746f206e6f6e20455243373231526560008201527f63656976657220696d706c656d656e7465720000000000000000000000000000602082015250565b6000613676603283612379565b91506136818261361a565b604082019050919050565b600060208201905081810360008301526136a581613669565b9050919050565b600081519050919050565b600082825260208201905092915050565b60006136d3826136ac565b6136dd81856136b7565b93506136ed81856020860161238a565b6136f6816123bd565b840191505092915050565b600060808201905061371660008301876124be565b61372360208301866124be565b61373060408301856125d4565b818103606083015261374281846136c8565b905095945050505050565b60008151905061375c816122df565b92915050565b600060208284031215613778576137776122a9565b5b60006137868482850161374d565b91505092915050565b7f4552433732313a206d696e7420746f20746865207a65726f2061646472657373600082015250565b60006137c5602083612379565b91506137d08261378f565b602082019050919050565b600060208201905081810360008301526137f4816137b8565b9050919050565b7f4552433732313a20746f6b656e20616c7265616479206d696e74656400000000600082015250565b6000613831601c83612379565b915061383c826137fb565b602082019050919050565b6000602082019050818103600083015261386081613824565b905091905056fe416e204e465420772f20494420257320686173206265656e206d696e74656420746f2025734142434445464748494a4b4c4d4e4f505152535455565758595a6162636465666768696a6b6c6d6e6f707172737475767778797a303132333435363738392b2fa26469706673582212208c5e7b9c3dd32639c59b1045e4d59c8f2244380c64cec1ed987d09d08fe4b91d64736f6c634300080900333c73766720786d6c6e733d27687474703a2f2f7777772e77332e6f72672f323030302f73766727207072657365727665417370656374526174696f3d27784d696e594d696e206d656574272076696577426f783d273020302033353020333530273e3c7374796c653e2e62617365207b2066696c6c3a2077686974653b20666f6e742d66616d696c793a2073657269663b20666f6e742d73697a653a20323470783b207d3c2f7374796c653e3c726563742077696474683d273130302527206865696768743d2731303025272066696c6c3d27272f3e3c7465787420783d273530252720793d273530252720636c6173733d27626173652720646f6d696e616e742d626173656c696e653d276d6964646c652720746578742d616e63686f723d276d6964646c65273e",
  "linkReferences": {},
  "deployedLinkReferences": {}
}